{
  "contractName": "newContract",
  "abi": [
    {
      "inputs": [
        {
          "internalType": "string",
          "name": "name1",
          "type": "string"
        }
      ],
      "name": "setName",
      "outputs": [],
      "stateMutability": "nonpayable",
      "type": "function"
    },
    {
      "inputs": [],
      "name": "getName",
      "outputs": [
        {
          "internalType": "string",
          "name": "",
          "type": "string"
        }
      ],
      "stateMutability": "view",
      "type": "function",
      "constant": true
    }
  ],
  "bytecode": "0x608060405234801561001057600080fd5b506102e4806100206000396000f3fe608060405234801561001057600080fd5b50600436106100365760003560e01c806317d7de7c1461003b578063c47f0027146100b8575b600080fd5b610043610160565b6040805160208082528351818301528351919283929083019185019080838360005b8381101561007d578181015183820152602001610065565b50505050905090810190601f1680156100aa5780820380516001836020036101000a031916815260200191505b509250505060405180910390f35b61015e600480360360208110156100ce57600080fd5b8101906020810181356401000000008111156100e957600080fd5b8201836020820111156100fb57600080fd5b8035906020019184600183028401116401000000008311171561011d57600080fd5b91908080601f0160208091040260200160405190810160405280939291908181526020018383808284376000920191909152509295506101f6945050505050565b005b60008054604080516020601f60026000196101006001881615020190951694909404938401819004810282018101909252828152606093909290918301828280156101ec5780601f106101c1576101008083540402835291602001916101ec565b820191906000526020600020905b8154815290600101906020018083116101cf57829003601f168201915b5050505050905090565b805161020990600090602084019061020d565b5050565b828054600181600116156101000203166002900490600052602060002090601f0160209004810192826102435760008555610289565b82601f1061025c57805160ff1916838001178555610289565b82800160010185558215610289579182015b8281111561028957825182559160200191906001019061026e565b50610295929150610299565b5090565b5b80821115610295576000815560010161029a56fea26469706673582212202a6bd694783442663a72a7f1c6ed6526f93c7210abd3dd75a81dddcdec87b99b64736f6c63430007040033",
  "immutableReferences": {},
  "source": "// SPDX-License-Identifier: MIT\r\npragma solidity >=0.4.22 <0.9.0;\r\n\r\ncontract newContract {\r\n\r\n    string name;\r\n\r\n    function setName(string memory name1) public {\r\n        name = name1;\r\n    }\r\n\r\n    function  getName() public view returns(string memory){\r\n        return name;\r\n        \r\n    }\r\n}\r\n",
  "sourcePath": "C:\\Users\\Zaid\\Desktop\\back bone\\src\\contracts\\newContract.sol",
  "compiler": {
    "name": "solc",
    "version": "0.7.4+commit.3f05b770.Emscripten.clang"
  },
  "schemaVersion": "3.4.3",
  "updatedAt": "2021-11-01T18:25:45.328Z",
  "networkType": "ethereum",
  "devdoc": {
    "kind": "dev",
    "methods": {},
    "version": 1
  },
  "userdoc": {
    "kind": "user",
    "methods": {},
    "version": 1
  }
}